{
  "contractName": "vote",
  "abi": [
    {
      "anonymous": false,
      "inputs": [
        {
          "indexed": true,
          "internalType": "address",
          "name": "voter",
          "type": "address"
        },
        {
          "indexed": true,
          "internalType": "uint256",
          "name": "candidateId",
          "type": "uint256"
        }
      ],
      "name": "VoteCast",
      "type": "event"
    },
    {
      "inputs": [],
      "name": "candidateCount",
      "outputs": [
        {
          "internalType": "uint256",
          "name": "",
          "type": "uint256"
        }
      ],
      "stateMutability": "view",
      "type": "function",
      "constant": true
    },
    {
      "inputs": [
        {
          "internalType": "string",
          "name": "",
          "type": "string"
        }
      ],
      "name": "voteCount",
      "outputs": [
        {
          "internalType": "uint256",
          "name": "",
          "type": "uint256"
        }
      ],
      "stateMutability": "view",
      "type": "function",
      "constant": true
    },
    {
      "inputs": [
        {
          "components": [
            {
              "internalType": "string",
              "name": "name",
              "type": "string"
            },
            {
              "internalType": "string",
              "name": "seatType",
              "type": "string"
            },
            {
              "internalType": "string",
              "name": "electionType",
              "type": "string"
            },
            {
              "internalType": "string",
              "name": "halka",
              "type": "string"
            },
            {
              "internalType": "string",
              "name": "party",
              "type": "string"
            },
            {
              "internalType": "uint256",
              "name": "voteCount",
              "type": "uint256"
            }
          ],
          "internalType": "struct vote.Candidate[]",
          "name": "_candidates",
          "type": "tuple[]"
        }
      ],
      "name": "registerCandidate",
      "outputs": [],
      "stateMutability": "nonpayable",
      "type": "function"
    },
    {
      "inputs": [
        {
          "internalType": "uint256",
          "name": "candidateId",
          "type": "uint256"
        }
      ],
      "name": "castVote",
      "outputs": [],
      "stateMutability": "nonpayable",
      "type": "function"
    },
    {
      "inputs": [],
      "name": "eachCandidateVote",
      "outputs": [
        {
          "components": [
            {
              "internalType": "string",
              "name": "name",
              "type": "string"
            },
            {
              "internalType": "string",
              "name": "seatType",
              "type": "string"
            },
            {
              "internalType": "string",
              "name": "electionType",
              "type": "string"
            },
            {
              "internalType": "string",
              "name": "halka",
              "type": "string"
            },
            {
              "internalType": "string",
              "name": "party",
              "type": "string"
            },
            {
              "internalType": "uint256",
              "name": "voteCount",
              "type": "uint256"
            }
          ],
          "internalType": "struct vote.Candidate[]",
          "name": "",
          "type": "tuple[]"
        }
      ],
      "stateMutability": "view",
      "type": "function",
      "constant": true
    },
    {
      "inputs": [],
      "name": "getTotalVotes",
      "outputs": [
        {
          "internalType": "uint256",
          "name": "",
          "type": "uint256"
        }
      ],
      "stateMutability": "view",
      "type": "function",
      "constant": true
    }
  ],
  "bytecode": "0x608060405234801561001057600080fd5b506112b4806100206000396000f3fe608060405234801561001057600080fd5b50600436106100625760003560e01c80633eb76b9c146100675780639a0e7d6614610083578063a9a981a3146100a1578063ba7f7552146100bf578063c9d3d547146100ef578063e6a1d49b1461010d575b600080fd5b610081600480360381019061007c91906107bf565b610129565b005b61008b6101e7565b60405161009891906107fb565b60405180910390f35b6100a9610239565b6040516100b691906107fb565b60405180910390f35b6100d960048036038101906100d4919061095c565b61023f565b6040516100e691906107fb565b60405180910390f35b6100f761026d565b6040516101049190610b9a565b60405180910390f35b61012760048036038101906101229190610dd8565b610610565b005b6001600260008084815260200190815260200160002060000160405161014f9190610f24565b9081526020016040518091039020600082825461016c9190610f6a565b92505081905550600160008083815260200190815260200160002060050160008282546101999190610f6a565b92505081905550803373ffffffffffffffffffffffffffffffffffffffff167fa36cc2bebb74db33e9f88110a07ef56e1b31b24b4c4f51b54b1664266e29f45b60405160405180910390a350565b6000806000905060005b60015481101561023157600080828152602001908152602001600020600501548261021c9190610f6a565b9150808061022990610f9e565b9150506101f1565b508091505090565b60015481565b6002818051602081018201805184825260208301602085012081835280955050505050506000915090505481565b6060600060015467ffffffffffffffff81111561028d5761028c610831565b5b6040519080825280602002602001820160405280156102c657816020015b6102b361073f565b8152602001906001900390816102ab5790505b50905060005b600154811015610608576000808281526020019081526020016000206040518060c001604052908160008201805461030390610e50565b80601f016020809104026020016040519081016040528092919081815260200182805461032f90610e50565b801561037c5780601f106103515761010080835404028352916020019161037c565b820191906000526020600020905b81548152906001019060200180831161035f57829003601f168201915b5050505050815260200160018201805461039590610e50565b80601f01602080910402602001604051908101604052809291908181526020018280546103c190610e50565b801561040e5780601f106103e35761010080835404028352916020019161040e565b820191906000526020600020905b8154815290600101906020018083116103f157829003601f168201915b5050505050815260200160028201805461042790610e50565b80601f016020809104026020016040519081016040528092919081815260200182805461045390610e50565b80156104a05780601f10610475576101008083540402835291602001916104a0565b820191906000526020600020905b81548152906001019060200180831161048357829003601f168201915b505050505081526020016003820180546104b990610e50565b80601f01602080910402602001604051908101604052809291908181526020018280546104e590610e50565b80156105325780601f1061050757610100808354040283529160200191610532565b820191906000526020600020905b81548152906001019060200180831161051557829003601f168201915b5050505050815260200160048201805461054b90610e50565b80601f016020809104026020016040519081016040528092919081815260200182805461057790610e50565b80156105c45780601f10610599576101008083540402835291602001916105c4565b820191906000526020600020905b8154815290600101906020018083116105a757829003601f168201915b505050505081526020016005820154815250508282815181106105ea576105e9610fe6565b5b6020026020010181905250808061060090610f9e565b9150506102cc565b508091505090565b60005b815181101561073b57600082828151811061063157610630610fe6565b5b602002602001015190506040518060c0016040528082600001518152602001826020015181526020018260400151815260200182606001518152602001826080015181526020018260a00151815250600080600154815260200190815260200160002060008201518160000190816106a991906111ac565b5060208201518160010190816106bf91906111ac565b5060408201518160020190816106d591906111ac565b5060608201518160030190816106eb91906111ac565b50608082015181600401908161070191906111ac565b5060a082015181600501559050506001600081548092919061072290610f9e565b919050555050808061073390610f9e565b915050610613565b5050565b6040518060c001604052806060815260200160608152602001606081526020016060815260200160608152602001600081525090565b6000604051905090565b600080fd5b600080fd5b6000819050919050565b61079c81610789565b81146107a757600080fd5b50565b6000813590506107b981610793565b92915050565b6000602082840312156107d5576107d461077f565b5b60006107e3848285016107aa565b91505092915050565b6107f581610789565b82525050565b600060208201905061081060008301846107ec565b92915050565b600080fd5b600080fd5b6000601f19601f8301169050919050565b7f4e487b7100000000000000000000000000000000000000000000000000000000600052604160045260246000fd5b61086982610820565b810181811067ffffffffffffffff8211171561088857610887610831565b5b80604052505050565b600061089b610775565b90506108a78282610860565b919050565b600067ffffffffffffffff8211156108c7576108c6610831565b5b6108d082610820565b9050602081019050919050565b82818337600083830152505050565b60006108ff6108fa846108ac565b610891565b90508281526020810184848401111561091b5761091a61081b565b5b6109268482856108dd565b509392505050565b600082601f83011261094357610942610816565b5b81356109538482602086016108ec565b91505092915050565b6000602082840312156109725761097161077f565b5b600082013567ffffffffffffffff8111156109905761098f610784565b5b61099c8482850161092e565b91505092915050565b600081519050919050565b600082825260208201905092915050565b6000819050602082019050919050565b600081519050919050565b600082825260208201905092915050565b60005b83811015610a0b5780820151818401526020810190506109f0565b60008484015250505050565b6000610a22826109d1565b610a2c81856109dc565b9350610a3c8185602086016109ed565b610a4581610820565b840191505092915050565b610a5981610789565b82525050565b600060c0830160008301518482036000860152610a7c8282610a17565b91505060208301518482036020860152610a968282610a17565b91505060408301518482036040860152610ab08282610a17565b91505060608301518482036060860152610aca8282610a17565b91505060808301518482036080860152610ae48282610a17565b91505060a0830151610af960a0860182610a50565b508091505092915050565b6000610b108383610a5f565b905092915050565b6000602082019050919050565b6000610b30826109a5565b610b3a81856109b0565b935083602082028501610b4c856109c1565b8060005b85811015610b885784840389528151610b698582610b04565b9450610b7483610b18565b925060208a01995050600181019050610b50565b50829750879550505050505092915050565b60006020820190508181036000830152610bb48184610b25565b905092915050565b600067ffffffffffffffff821115610bd757610bd6610831565b5b602082029050602081019050919050565b600080fd5b600080fd5b600080fd5b600060c08284031215610c0d57610c0c610bed565b5b610c1760c0610891565b9050600082013567ffffffffffffffff811115610c3757610c36610bf2565b5b610c438482850161092e565b600083015250602082013567ffffffffffffffff811115610c6757610c66610bf2565b5b610c738482850161092e565b602083015250604082013567ffffffffffffffff811115610c9757610c96610bf2565b5b610ca38482850161092e565b604083015250606082013567ffffffffffffffff811115610cc757610cc6610bf2565b5b610cd38482850161092e565b606083015250608082013567ffffffffffffffff811115610cf757610cf6610bf2565b5b610d038482850161092e565b60808301525060a0610d17848285016107aa565b60a08301525092915050565b6000610d36610d3184610bbc565b610891565b90508083825260208201905060208402830185811115610d5957610d58610be8565b5b835b81811015610da057803567ffffffffffffffff811115610d7e57610d7d610816565b5b808601610d8b8982610bf7565b85526020850194505050602081019050610d5b565b5050509392505050565b600082601f830112610dbf57610dbe610816565b5b8135610dcf848260208601610d23565b91505092915050565b600060208284031215610dee57610ded61077f565b5b600082013567ffffffffffffffff811115610e0c57610e0b610784565b5b610e1884828501610daa565b91505092915050565b7f4e487b7100000000000000000000000000000000000000000000000000000000600052602260045260246000fd5b60006002820490506001821680610e6857607f821691505b602082108103610e7b57610e7a610e21565b5b50919050565b600081905092915050565b60008190508160005260206000209050919050565b60008154610eae81610e50565b610eb88186610e81565b94506001821660008114610ed35760018114610ee857610f1b565b60ff1983168652811515820286019350610f1b565b610ef185610e8c565b60005b83811015610f1357815481890152600182019150602081019050610ef4565b838801955050505b50505092915050565b6000610f308284610ea1565b915081905092915050565b7f4e487b7100000000000000000000000000000000000000000000000000000000600052601160045260246000fd5b6000610f7582610789565b9150610f8083610789565b9250828201905080821115610f9857610f97610f3b565b5b92915050565b6000610fa982610789565b91507fffffffffffffffffffffffffffffffffffffffffffffffffffffffffffffffff8203610fdb57610fda610f3b565b5b600182019050919050565b7f4e487b7100000000000000000000000000000000000000000000000000000000600052603260045260246000fd5b60006020601f8301049050919050565b600082821b905092915050565b6000600883026110627fffffffffffffffffffffffffffffffffffffffffffffffffffffffffffffffff82611025565b61106c8683611025565b95508019841693508086168417925050509392505050565b6000819050919050565b60006110a96110a461109f84610789565b611084565b610789565b9050919050565b6000819050919050565b6110c38361108e565b6110d76110cf826110b0565b848454611032565b825550505050565b600090565b6110ec6110df565b6110f78184846110ba565b505050565b5b8181101561111b576111106000826110e4565b6001810190506110fd565b5050565b601f8211156111605761113181610e8c565b61113a84611015565b81016020851015611149578190505b61115d61115585611015565b8301826110fc565b50505b505050565b600082821c905092915050565b600061118360001984600802611165565b1980831691505092915050565b600061119c8383611172565b9150826002028217905092915050565b6111b5826109d1565b67ffffffffffffffff8111156111ce576111cd610831565b5b6111d88254610e50565b6111e382828561111f565b600060209050601f8311600181146112165760008415611204578287015190505b61120e8582611190565b865550611276565b601f19841661122486610e8c565b60005b8281101561124c57848901518255600182019150602085019450602081019050611227565b868310156112695784890151611265601f891682611172565b8355505b6001600288020188555050505b50505050505056fea26469706673582212203e2778a161453156c9cacf25c725c43b8a0014e9939d1541f8cb1e7ecb0f4cb564736f6c63430008130033",
  "immutableReferences": {},
  "source": "// SPDX-License-Identifier: MIT\r\npragma solidity ^0.8.0;\r\npragma experimental ABIEncoderV2;\r\ncontract vote {\r\n    struct Candidate {\r\n        string name;\r\n        string seatType;\r\n        string electionType;\r\n        string halka;\r\n        string party;\r\n        uint256 voteCount;\r\n    }\r\n    mapping(uint256 => Candidate) candidates;\r\n    uint256 public candidateCount;\r\n    mapping(string => uint256) public voteCount;\r\n\r\n    event VoteCast(\r\n        address indexed voter,\r\n        uint256 indexed candidateId\r\n    );\r\n\r\n    function registerCandidate( Candidate[] memory _candidates) public {\r\n        for (uint256 i = 0; i < _candidates.length; i++) {\r\n        Candidate memory candidate = _candidates[i];\r\n        candidates[candidateCount] = Candidate(candidate.name, candidate.seatType, candidate.electionType, candidate.halka, candidate.party, candidate.voteCount);\r\n        candidateCount++;\r\n        }\r\n    }\r\n\r\n    function castVote(uint256 candidateId) public {\r\n        voteCount[ candidates[candidateId].name ] += 1;\r\n        candidates[candidateId].voteCount += 1;\r\n        emit VoteCast(msg.sender, candidateId);\r\n    }\r\n\r\n    function eachCandidateVote() public view returns (Candidate[] memory) {\r\n             Candidate[] memory votes = new Candidate[](candidateCount);\r\n            for (uint256 i = 0; i < candidateCount; i++) {\r\n                votes[i] = candidates[i];\r\n            }\r\n            return votes;\r\n        }\r\n\r\n    function getTotalVotes() public view returns (uint256) {\r\n        uint256 totalVotes = 0;\r\n        for (uint256 i = 0; i < candidateCount; i++) {\r\n            totalVotes += candidates[i].voteCount;\r\n        }\r\n        return totalVotes;\r\n    }\r\n}",
  "sourcePath": "F:\\FYP\\Blockchain\\contracts\\vote.sol",
  "compiler": {
    "name": "solc",
    "version": "0.8.19+commit.7dd6d404.Emscripten.clang"
  },
  "schemaVersion": "3.4.13",
  "updatedAt": "2023-06-06T18:10:13.847Z",
  "networkType": "ethereum",
  "devdoc": {
    "kind": "dev",
    "methods": {},
    "version": 1
  },
  "userdoc": {
    "kind": "user",
    "methods": {},
    "version": 1
  }
}